:1000000051C0D6C16AC069C068C067C066C065C05B
:1000100064C063C062C061C060C05FC05EC00902EE
:100020002200010100801409040000010300000007
:10003000092101010001221600070581030800645F
:100040001201100100000008C016DF0500020102C5
:10005000000112034300310042006C0069006E0091
:100060006B00790026036300610070006900740072
:1000700061006C006F006E0065006C006100620042
:1000800073002E0063006F006D0004030904060076
:10009000FF0901A101150026FF007508950109005F
:1000A000B20201C011241FBECFE5D2E0DEBFCDBF3A
:1000B00010E0A0E6B0E0E6E1F8E002C005900D92A5
:1000C000A236B107D9F720E0A2E6B0E001C01D9248
:1000D000A23AB207E1F770D39CC392CFCF93C62F59
:1000E0002091760024FF07C02091770038E823276D
:1000F0002093770003C02AE520937600DC01E8E72F
:10010000F0E09C2F9E0F8D918193892F8E1B1816E6
:10011000D4F36C2F88E790E034D1CC5FC0937600A5
:10012000CF910895CF93DF9380918800835087FD0E
:10013000A3C090918400209183002D3209F09AC0D1
:10014000883009F097C0CCE0D0E0C91BD109C45772
:10015000DF4F83EC80936B008AE5809361001092FF
:1001600063008881807619F0CE0185D27AC09A81A9
:10017000109274008981811106C01092750024E7E5
:1001800030E082E06AC0853019F49093890062C043
:10019000863009F049C08B81813019F480E490E009
:1001A00024C0823041F48EE190E0909387008093E8
:1001B000860082E235C08330F1F4911108C08AE8EC
:1001C00090E0909387008093860084E029C091306E
:1001D00041F484E690E0909387008093860086E265
:1001E0001FC09230E1F482E590E090938700809305
:1001F000860082E115C0813241F480E390E0909363
:1002000087008093860089E00BC0823241F48EE83B
:1002100090E0909387008093860086E101C080E0A3
:1002200090E4909363001DC0883069F0893019F420
:1002300090938B000FC08A3049F08B3059F48BE4D7
:100240008093770007C02BE830E002C024E730E05D
:1002500081E003C024E730E080E030938700209302
:1002600086009F81911104C09E81981708F4892F00
:1002700080936000109288008091610084FF46C0E6
:10028000809160008F3F09F441C0C82F893008F089
:10029000C8E08C1B8093600080916B0098E88927F0
:1002A00080936B00CC2331F1209186003091870040
:1002B0008091630086FF0BC0ACE6B0E0F9018C2FA3
:1002C0008A0F94919D9331968A13FBCF09C0D9016F
:1002D000ECE6F0E08C2F8E0F9D9191938E13FCCF66
:1002E0008FEF8C0F90E00196820F931F9093870001
:1002F000809386006C2F8CE690E043D0CC5FCC30AE
:1003000019F08FEF80936000C093610084E196B391
:100310009C7031F48150D9F71092890010928200BC
:10032000C1E08111C0E0809162008C1729F0C111F9
:1003300001C0BAD1C0936200DF91CF91089585B713
:10034000826085BF8BB780648BBF8BE4809377001E
:100350008AE5809376000895A82FB92F80E090E079
:1003600041E050EA60956F5F58F42D9138EF822795
:100370009795879510F0842795273F5FC8F3F3CFB3
:100380000895EADF8D939D930895A6E08827992725
:10039000AA9569F00197E1F3B399FCCFB39BFECF27
:1003A00081E09927A6B3019611F0AC70D9F70895B2
:1003B000CF93CFB7CF93C395B39BE9F7B39B10C04F
:1003C000B39B0EC0B39B0CC0B39B0AC0B39B08C0C9
:1003D000B39B06C0C0918500C395C0938500D5C06E
:1003E0000F92DF93C0918400DD27C457DF4F012EA9
:1003F000B39B03C0DF910F90E1CF2F930F931F9317
:100400004F932FEF4F6F06B303FB20F95F933F939A
:1004100050E03BE065C016B30126502953FDC89556
:1004200056B3012703FB25F92F7306B3B1F050270C
:10043000102713FB26F906B22230F0F000C016B3E5
:10044000012703FB27F90126502906B22430E8F5DD
:100450004F77206816B30000F6CF50274F7D2062FB
:1004600006B2102F000000C006B300265029102746
:1004700013FB26F906B2E2CF4F7B06B3206400C01F
:10048000DACF012650291C7006B269F14E7F216037
:10049000012F16B328C0002650294D7F06B22260D6
:1004A000102F29C0012650294B7F06B22460012F4E
:1004B0002DC016B301265029477F2860000006B2E0
:1004C0002EC04F7E06B3206130C0422706B3499349
:1004D00000265029102706B24FEF13FB20F9297F81
:1004E00016B379F21C7059F10126502906B2012782
:1004F00003FB21F9237F06B371F200265029315006
:10050000D0F006B2102713FB22F9277E16B351F262
:1005100001265029012703FB06B223F92F7C49F25B
:10052000000006B3102713FB24F90026502906B259
:100530002F7939F270CF10E41ABF002719C03B5051
:100540003195C31BD04010E41ABF0881033C09F168
:100550000B34F9F0209182001981110F1213EDCFA5
:100560004A81441F093651F10D3211F0013E29F73D
:1005700000938A003F915F914F911F910F912F91AE
:10058000DF910F90CAB7C6FD16CFCF91CFBFCF91E5
:10059000189520918A00222369F310918800112375
:1005A00079F534307AF130938800209383001091EC
:1005B00084003BE0311B3093840024C0009188000C
:1005C0000130F4F40AE54F7049F43091610034FDD4
:1005D0001AC000936100CBE6D0E019C030917600DC
:1005E00034FD11C000937600C7E7D0E010C00527A6
:1005F00010E000C021C0052710E0C89508BB14C05A
:100600003AE501C032ED032EC0E0D0E032E017B38E
:100610001C60C39A08B317BB5CE020E84FEF20FFD3
:10062000052708BB279517951C3F28F70000455262
:10063000B0F720FF0527279508BB17951C3FB8F694
:1006400029913A9561F7037F10918900110F08BB3A
:10065000C250D04011F01093820010E41ABF08601D
:1006600017B3137F402F437F54E05A95F1F708BB2F
:1006700017BB48BB7FCFFC0180818076803491F42A
:100680008181843041F0853051F0833059F482818A
:100690008093690007C082818093680003C08281D3
:1006A0008093670080E00895DF92EF92FF920F93AE
:1006B0001F93CF93DF93F894C8E0D0E0F12C80E84B
:1006C000E82EDE2CDF0CD1BE60DE8C01043389E025
:1006D00018070CF4FD2CE6942197209791F78FEFE3
:1006E0008F0D81BFCF2DD0E0219681B790E0C81744
:1006F000D9078CF04ADE8453994097FF03C0919547
:10070000819591098017910714F4F1B68C0181B796
:100710008F5F81BFEACFF1BE789461B780E090E04F
:10072000DF91CF911F910F91FF90EF90DF9063C009
:1007300080916A008F5F80936A00811116C080915A
:100740006900809366009091680090936500909195
:100750006700909364008111C09A809165008111B7
:10076000C19A809164008111C49A90916A0080912D
:100770006600981301C0C09890916A00809165004E
:10078000981301C0C19890916A00809164009813F9
:1007900001C0C49808958CB580668CBD8AB5836A03
:1007A0008ABD80B7816080BF83B7816083BF8FEFD0
:1007B00089BD88BD8BBD08952EE088E190E00FB61D
:1007C000F894A89581BD0FBE21BDB9DDBB9A80E02C
:1007D000815041F0A895ECE1F0E13197F1F700C0CC
:1007E0000000F6CFBB98B89AB99ABC9A7894A0DF6B
:1007F000A89598DCFCCF262FE199FECF1CBA9FBBB1
:100800008EBB2DBB0FB6F894E29AE19A0FBE01960B
:060810000895F894FFCFEB
:02081600FF5A87
:00000001FF
